{
  "_format": "hh-sol-artifact-1",
  "contractName": "counter",
  "sourceName": "contracts/counter.sol",
  "abi": [
    {
      "inputs": [],
      "stateMutability": "nonpayable",
      "type": "constructor"
    },
    {
      "inputs": [
        {
          "internalType": "uint256",
          "name": "a",
          "type": "uint256"
        },
        {
          "internalType": "uint256",
          "name": "b",
          "type": "uint256"
        }
      ],
      "name": "add",
      "outputs": [
        {
          "internalType": "uint256",
          "name": "",
          "type": "uint256"
        }
      ],
      "stateMutability": "pure",
      "type": "function"
    },
    {
      "inputs": [
        {
          "internalType": "uint256",
          "name": "a",
          "type": "uint256"
        },
        {
          "internalType": "uint256",
          "name": "b",
          "type": "uint256"
        }
      ],
      "name": "div",
      "outputs": [
        {
          "internalType": "uint256",
          "name": "",
          "type": "uint256"
        }
      ],
      "stateMutability": "pure",
      "type": "function"
    },
    {
      "inputs": [
        {
          "internalType": "uint256",
          "name": "a",
          "type": "uint256"
        },
        {
          "internalType": "uint256",
          "name": "b",
          "type": "uint256"
        }
      ],
      "name": "mul",
      "outputs": [
        {
          "internalType": "uint256",
          "name": "",
          "type": "uint256"
        }
      ],
      "stateMutability": "pure",
      "type": "function"
    },
    {
      "inputs": [],
      "name": "number",
      "outputs": [
        {
          "internalType": "uint256",
          "name": "",
          "type": "uint256"
        }
      ],
      "stateMutability": "view",
      "type": "function"
    },
    {
      "inputs": [],
      "name": "returnNumber",
      "outputs": [
        {
          "internalType": "uint256",
          "name": "",
          "type": "uint256"
        }
      ],
      "stateMutability": "view",
      "type": "function"
    },
    {
      "inputs": [
        {
          "internalType": "uint256",
          "name": "a",
          "type": "uint256"
        },
        {
          "internalType": "uint256",
          "name": "b",
          "type": "uint256"
        }
      ],
      "name": "sub",
      "outputs": [
        {
          "internalType": "uint256",
          "name": "",
          "type": "uint256"
        }
      ],
      "stateMutability": "pure",
      "type": "function"
    }
  ],
  "bytecode": "0x6080604052348015600f57600080fd5b5060646000819055506103de806100276000396000f3fe608060405234801561001057600080fd5b50600436106100625760003560e01c80633450bd6a14610067578063771602f7146100855780638381f58a146100b5578063a391c15b146100d3578063b67d77c514610103578063c8a4ac9c14610133575b600080fd5b61006f610163565b60405161007c91906101e3565b60405180910390f35b61009f600480360381019061009a919061022f565b61016c565b6040516100ac91906101e3565b60405180910390f35b6100bd610182565b6040516100ca91906101e3565b60405180910390f35b6100ed60048036038101906100e8919061022f565b610188565b6040516100fa91906101e3565b60405180910390f35b61011d6004803603810190610118919061022f565b61019e565b60405161012a91906101e3565b60405180910390f35b61014d6004803603810190610148919061022f565b6101b4565b60405161015a91906101e3565b60405180910390f35b60008054905090565b6000818361017a919061029e565b905092915050565b60005481565b600081836101969190610301565b905092915050565b600081836101ac9190610332565b905092915050565b600081836101c29190610366565b905092915050565b6000819050919050565b6101dd816101ca565b82525050565b60006020820190506101f860008301846101d4565b92915050565b600080fd5b61020c816101ca565b811461021757600080fd5b50565b60008135905061022981610203565b92915050565b60008060408385031215610246576102456101fe565b5b60006102548582860161021a565b92505060206102658582860161021a565b9150509250929050565b7f4e487b7100000000000000000000000000000000000000000000000000000000600052601160045260246000fd5b60006102a9826101ca565b91506102b4836101ca565b92508282019050808211156102cc576102cb61026f565b5b92915050565b7f4e487b7100000000000000000000000000000000000000000000000000000000600052601260045260246000fd5b600061030c826101ca565b9150610317836101ca565b925082610327576103266102d2565b5b828204905092915050565b600061033d826101ca565b9150610348836101ca565b92508282039050818111156103605761035f61026f565b5b92915050565b6000610371826101ca565b915061037c836101ca565b925082820261038a816101ca565b915082820484148315176103a1576103a061026f565b5b509291505056fea264697066735822122039d34ac46f7bb5bb1a1835f19ec663494e36785ece7156cee7d77ba314f699a164736f6c634300081c0033",
  "linkReferences": {},
  "deployedLinkReferences": {}
}